{"abi":[{"type":"function","name":"depositToAztecPrivate","inputs":[{"name":"_secretHashForRedeemingMintedNotes","type":"bytes32","internalType":"bytes32"},{"name":"_amount","type":"uint256","internalType":"uint256"},{"name":"_secretHashForL2MessageConsumption","type":"bytes32","internalType":"bytes32"}],"outputs":[{"name":"","type":"bytes32","internalType":"bytes32"}],"stateMutability":"nonpayable"},{"type":"function","name":"initialize","inputs":[{"name":"_registry","type":"address","internalType":"address"},{"name":"_underlying","type":"address","internalType":"address"},{"name":"_l2Bridge","type":"bytes32","internalType":"bytes32"}],"outputs":[],"stateMutability":"nonpayable"},{"type":"function","name":"l2Bridge","inputs":[],"outputs":[{"name":"","type":"bytes32","internalType":"bytes32"}],"stateMutability":"view"},{"type":"function","name":"registry","inputs":[],"outputs":[{"name":"","type":"address","internalType":"contract IRegistry"}],"stateMutability":"view"},{"type":"function","name":"underlying","inputs":[],"outputs":[{"name":"","type":"address","internalType":"contract IERC20"}],"stateMutability":"view"},{"type":"function","name":"withdraw","inputs":[{"name":"_recipient","type":"address","internalType":"address"},{"name":"_amount","type":"uint256","internalType":"uint256"},{"name":"_withCaller","type":"bool","internalType":"bool"},{"name":"_l2BlockNumber","type":"uint256","internalType":"uint256"},{"name":"_leafIndex","type":"uint256","internalType":"uint256"},{"name":"_path","type":"bytes32[]","internalType":"bytes32[]"}],"outputs":[],"stateMutability":"nonpayable"},{"type":"error","name":"AddressEmptyCode","inputs":[{"name":"target","type":"address","internalType":"address"}]},{"type":"error","name":"AddressInsufficientBalance","inputs":[{"name":"account","type":"address","internalType":"address"}]},{"type":"error","name":"FailedInnerCall","inputs":[]},{"type":"error","name":"SafeERC20FailedOperation","inputs":[{"name":"token","type":"address","internalType":"address"}]}],"bytecode":{"object":"0x6080604052348015600f57600080fd5b506109f68061001f6000396000f3fe608060405234801561001057600080fd5b50600436106100625760003560e01c80633ba57310146100675780636133f9851461007c5780636f307dc3146100bf5780637b103999146100ef578063ae1f6aaf14610102578063ca20338914610119575b600080fd5b61007a6100753660046107d3565b61012c565b005b61007a61008a36600461088e565b600080546001600160a01b039485166001600160a01b0319918216179091556001805493909416921691909117909155600255565b6001546100d2906001600160a01b031681565b6040516001600160a01b0390911681526020015b60405180910390f35b6000546100d2906001600160a01b031681565b61010b60025481565b6040519081526020016100e6565b61010b6101273660046108cf565b6103c1565b6040805160a08101825260025460608201908152600160808301528152815180830183523081524660208281019190915282015260009181016101cd8a8a8a610176576000610178565b335b6040516001600160a01b0393841660248201526044810192909252909116606482015260840160408051601f198184030181529190526020810180516001600160e01b0316631a4ca37b60e21b17905261055b565b815250905060008060009054906101000a90046001600160a01b03166001600160a01b031663a32fbb7b6040518163ffffffff1660e01b8152600401602060405180830381865afa158015610226573d6000803e3d6000fd5b505050506040513d601f19601f8201168201806040525081019061024a91906108fb565b604080516313608c9d60e01b815284518051600483015260209081015160248301528086015180516001600160a01b0390811660448501529101516064830152918501516084820152919250600091908316906313608c9d9060a4016020604051808303816000875af11580156102c5573d6000803e3d6000fd5b505050506040513d601f19601f820116820180604052508101906102e99190610918565b90508061033d5760405162461bcd60e51b815260206004820152601a60248201527f4d65737361676520636f6e73756d7074696f6e206661696c656400000000000060448201526064015b60405180910390fd5b60015460405163a9059cbb60e01b81526001600160a01b038c81166004830152602482018c90529091169063a9059cbb906044016020604051808303816000875af1158015610390573d6000803e3d6000fd5b505050506040513d601f19601f820116820180604052508101906103b49190610931565b5050505050505050505050565b6000805460408051630da3024f60e21b8152905183926001600160a01b03169163368c093c9160048083019260209291908290030181865afa15801561040b573d6000803e3d6000fd5b505050506040513d601f19601f8201168201806040525081019061042f91906108fb565b60408051808201825260025481526001602082015290516024810188905260448101879052919250906000906104919060640160408051601f198184030181529190526020810180516001600160e01b031663efa012c160e01b17905261055b565b6001549091506104ac906001600160a01b03163330896105de565b60006104bb426201518061094e565b6040516319ea4fcb60e11b8152845160048201526020850151602482015263ffffffff8216604482015260648101849052608481018890529091506001600160a01b038516906333d49f969060a4016020604051808303816000875af1158015610529573d6000803e3d6000fd5b505050506040513d601f19601f8201168201806040525081019061054d9190610918565b9450505050505b9392505050565b60007f30644e72e131a029b85045b68181585d2833e84879b9709143e1f593f000000160028360405161058e919061096f565b602060405180830381855afa1580156105ab573d6000803e3d6000fd5b5050506040513d601f19601f820116820180604052508101906105ce9190610918565b6105d8919061099e565b92915050565b604080516001600160a01b0385811660248301528416604482015260648082018490528251808303909101815260849091019091526020810180516001600160e01b03166323b872dd60e01b17905261063890859061063e565b50505050565b60006106536001600160a01b038416836106a6565b905080516000141580156106785750808060200190518101906106769190610931565b155b156106a157604051635274afe760e01b81526001600160a01b0384166004820152602401610334565b505050565b60606105548383600084600080856001600160a01b031684866040516106cc919061096f565b60006040518083038185875af1925050503d8060008114610709576040519150601f19603f3d011682016040523d82523d6000602084013e61070e565b606091505b509150915061071e868383610728565b9695505050505050565b60608261073d5761073882610784565b610554565b815115801561075457506001600160a01b0384163b155b1561077d57604051639996b31560e01b81526001600160a01b0385166004820152602401610334565b5080610554565b8051156107945780518082602001fd5b604051630a12f52160e11b815260040160405180910390fd5b50565b6001600160a01b03811681146107ad57600080fd5b80151581146107ad57600080fd5b600080600080600080600060c0888a0312156107ee57600080fd5b87356107f9816107b0565b9650602088013595506040880135610810816107c5565b9450606088013593506080880135925060a088013567ffffffffffffffff81111561083a57600080fd5b8801601f81018a1361084b57600080fd5b803567ffffffffffffffff81111561086257600080fd5b8a60208260051b840101111561087757600080fd5b602082019350809250505092959891949750929550565b6000806000606084860312156108a357600080fd5b83356108ae816107b0565b925060208401356108be816107b0565b929592945050506040919091013590565b6000806000606084860312156108e457600080fd5b505081359360208301359350604090920135919050565b60006020828403121561090d57600080fd5b8151610554816107b0565b60006020828403121561092a57600080fd5b5051919050565b60006020828403121561094357600080fd5b8151610554816107c5565b808201808211156105d857634e487b7160e01b600052601160045260246000fd5b6000825160005b818110156109905760208186018101518583015201610976565b506000920191825250919050565b6000826109bb57634e487b7160e01b600052601260045260246000fd5b50069056fea2646970667358221220f4af60f45807e0a59e8d008430457c31b41307bbbffd6714016bc9b91ea7c24364736f6c634300081a0033","linkReferences":{}},"methodIdentifiers":{"depositToAztecPrivate(bytes32,uint256,bytes32)":"ca203389","initialize(address,address,bytes32)":"6133f985","l2Bridge()":"ae1f6aaf","registry()":"7b103999","underlying()":"6f307dc3","withdraw(address,uint256,bool,uint256,uint256,bytes32[])":"3ba57310"},"id":35}